{
  "_format": "hh-sol-artifact-1",
  "contractName": "Crowdfunding",
  "sourceName": "contracts/Crowdfunding.sol",
  "abi": [
    {
      "inputs": [
        {
          "internalType": "address",
          "name": "_usdcAddress",
          "type": "address"
        }
      ],
      "stateMutability": "nonpayable",
      "type": "constructor"
    },
    {
      "inputs": [],
      "name": "CampaignEnded",
      "type": "error"
    },
    {
      "inputs": [
        {
          "internalType": "uint256",
          "name": "id",
          "type": "uint256"
        }
      ],
      "name": "CampaignNotFound",
      "type": "error"
    },
    {
      "inputs": [],
      "name": "GoalNotMet",
      "type": "error"
    },
    {
      "inputs": [],
      "name": "InvalidDuration",
      "type": "error"
    },
    {
      "inputs": [],
      "name": "InvalidGoal",
      "type": "error"
    },
    {
      "inputs": [],
      "name": "NoContribution",
      "type": "error"
    },
    {
      "inputs": [],
      "name": "NotCreator",
      "type": "error"
    },
    {
      "inputs": [],
      "name": "NothingToWithdraw",
      "type": "error"
    },
    {
      "inputs": [],
      "name": "PastDeadline",
      "type": "error"
    },
    {
      "inputs": [],
      "name": "ReentrancyGuardReentrantCall",
      "type": "error"
    },
    {
      "inputs": [
        {
          "internalType": "address",
          "name": "token",
          "type": "address"
        }
      ],
      "name": "SafeERC20FailedOperation",
      "type": "error"
    },
    {
      "anonymous": false,
      "inputs": [
        {
          "indexed": true,
          "internalType": "uint256",
          "name": "id",
          "type": "uint256"
        },
        {
          "indexed": true,
          "internalType": "address",
          "name": "creator",
          "type": "address"
        },
        {
          "indexed": true,
          "internalType": "address",
          "name": "token",
          "type": "address"
        },
        {
          "indexed": false,
          "internalType": "uint256",
          "name": "goal",
          "type": "uint256"
        },
        {
          "indexed": false,
          "internalType": "uint256",
          "name": "deadline",
          "type": "uint256"
        },
        {
          "indexed": false,
          "internalType": "string",
          "name": "metadata",
          "type": "string"
        }
      ],
      "name": "CampaignCreated",
      "type": "event"
    },
    {
      "anonymous": false,
      "inputs": [
        {
          "indexed": true,
          "internalType": "uint256",
          "name": "id",
          "type": "uint256"
        },
        {
          "indexed": true,
          "internalType": "address",
          "name": "contributor",
          "type": "address"
        },
        {
          "indexed": false,
          "internalType": "uint256",
          "name": "amount",
          "type": "uint256"
        },
        {
          "indexed": false,
          "internalType": "uint256",
          "name": "newTotal",
          "type": "uint256"
        }
      ],
      "name": "ContributionReceived",
      "type": "event"
    },
    {
      "anonymous": false,
      "inputs": [
        {
          "indexed": true,
          "internalType": "uint256",
          "name": "id",
          "type": "uint256"
        },
        {
          "indexed": true,
          "internalType": "address",
          "name": "contributor",
          "type": "address"
        },
        {
          "indexed": false,
          "internalType": "uint256",
          "name": "amount",
          "type": "uint256"
        }
      ],
      "name": "Refund",
      "type": "event"
    },
    {
      "anonymous": false,
      "inputs": [
        {
          "indexed": true,
          "internalType": "uint256",
          "name": "id",
          "type": "uint256"
        },
        {
          "indexed": true,
          "internalType": "address",
          "name": "creator",
          "type": "address"
        },
        {
          "indexed": false,
          "internalType": "uint256",
          "name": "amount",
          "type": "uint256"
        }
      ],
      "name": "Withdrawal",
      "type": "event"
    },
    {
      "inputs": [],
      "name": "USDC_ADDRESS",
      "outputs": [
        {
          "internalType": "address",
          "name": "",
          "type": "address"
        }
      ],
      "stateMutability": "view",
      "type": "function"
    },
    {
      "inputs": [],
      "name": "campaignCount",
      "outputs": [
        {
          "internalType": "uint256",
          "name": "",
          "type": "uint256"
        }
      ],
      "stateMutability": "view",
      "type": "function"
    },
    {
      "inputs": [
        {
          "internalType": "uint256",
          "name": "id",
          "type": "uint256"
        },
        {
          "internalType": "uint256",
          "name": "amount",
          "type": "uint256"
        }
      ],
      "name": "contribute",
      "outputs": [],
      "stateMutability": "nonpayable",
      "type": "function"
    },
    {
      "inputs": [
        {
          "internalType": "uint256",
          "name": "id",
          "type": "uint256"
        },
        {
          "internalType": "address",
          "name": "contributor",
          "type": "address"
        }
      ],
      "name": "contributionOf",
      "outputs": [
        {
          "internalType": "uint256",
          "name": "",
          "type": "uint256"
        }
      ],
      "stateMutability": "view",
      "type": "function"
    },
    {
      "inputs": [
        {
          "internalType": "uint256",
          "name": "goal",
          "type": "uint256"
        },
        {
          "internalType": "uint256",
          "name": "duration",
          "type": "uint256"
        },
        {
          "internalType": "string",
          "name": "metadata",
          "type": "string"
        }
      ],
      "name": "createCampaign",
      "outputs": [
        {
          "internalType": "uint256",
          "name": "id",
          "type": "uint256"
        }
      ],
      "stateMutability": "nonpayable",
      "type": "function"
    },
    {
      "inputs": [
        {
          "internalType": "uint256",
          "name": "id",
          "type": "uint256"
        }
      ],
      "name": "getCampaign",
      "outputs": [
        {
          "components": [
            {
              "internalType": "address",
              "name": "creator",
              "type": "address"
            },
            {
              "internalType": "contract IERC20",
              "name": "token",
              "type": "address"
            },
            {
              "internalType": "uint256",
              "name": "goal",
              "type": "uint256"
            },
            {
              "internalType": "uint256",
              "name": "deadline",
              "type": "uint256"
            },
            {
              "internalType": "uint256",
              "name": "raised",
              "type": "uint256"
            },
            {
              "internalType": "bool",
              "name": "withdrawn",
              "type": "bool"
            }
          ],
          "internalType": "struct Crowdfunding.Campaign",
          "name": "",
          "type": "tuple"
        }
      ],
      "stateMutability": "view",
      "type": "function"
    },
    {
      "inputs": [
        {
          "internalType": "uint256",
          "name": "id",
          "type": "uint256"
        }
      ],
      "name": "refund",
      "outputs": [],
      "stateMutability": "nonpayable",
      "type": "function"
    },
    {
      "inputs": [
        {
          "internalType": "uint256",
          "name": "id",
          "type": "uint256"
        }
      ],
      "name": "withdraw",
      "outputs": [],
      "stateMutability": "nonpayable",
      "type": "function"
    }
  ],
  "bytecode": "0x60a06040523480156200001157600080fd5b5060405162001798380380620017988339818101604052810190620000379190620000e4565b60016000819055508073ffffffffffffffffffffffffffffffffffffffff1660808173ffffffffffffffffffffffffffffffffffffffff16815250505062000116565b600080fd5b600073ffffffffffffffffffffffffffffffffffffffff82169050919050565b6000620000ac826200007f565b9050919050565b620000be816200009f565b8114620000ca57600080fd5b50565b600081519050620000de81620000b3565b92915050565b600060208284031215620000fd57620000fc6200007a565b5b60006200010d84828501620000cd565b91505092915050565b6080516116586200014060003960008181610c6401528181610d9c0152610e3101526116586000f3fe608060405234801561001057600080fd5b50600436106100885760003560e01c80637274e30d1161005b5780637274e30d146101255780638c5909171461014357806391cbf44e1461015f578063bb09d9b71461018f57610088565b8063278ecde11461008d5780632e1a7d4d146100a95780635598f8cc146100c55780636813947f146100f5575b600080fd5b6100a760048036038101906100a291906110ea565b6101ad565b005b6100c360048036038101906100be91906110ea565b61046f565b005b6100df60048036038101906100da91906110ea565b610750565b6040516100ec919061125c565b60405180910390f35b61010f600480360381019061010a91906112a3565b6108dd565b60405161011c91906112f2565b60405180910390f35b61012d610938565b60405161013a91906112f2565b60405180910390f35b61015d6004803603810190610158919061130d565b61093e565b005b610179600480360381019061017491906113b2565b610b9f565b60405161018691906112f2565b60405180910390f35b610197610e2f565b6040516101a49190611435565b60405180910390f35b6101b5610e53565b6000600260008381526020019081526020016000209050600073ffffffffffffffffffffffffffffffffffffffff168160000160009054906101000a900473ffffffffffffffffffffffffffffffffffffffff1673ffffffffffffffffffffffffffffffffffffffff160361026157816040517f2c067cd700000000000000000000000000000000000000000000000000000000815260040161025891906112f2565b60405180910390fd5b8060030154421161029e576040517f81efbd8d00000000000000000000000000000000000000000000000000000000815260040160405180910390fd5b80600201548160040154106102df576040517f115bddd400000000000000000000000000000000000000000000000000000000815260040160405180910390fd5b60006003600084815260200190815260200160002060003373ffffffffffffffffffffffffffffffffffffffff1673ffffffffffffffffffffffffffffffffffffffff1681526020019081526020016000205490506000810361036e576040517f65c7efcc00000000000000000000000000000000000000000000000000000000815260040160405180910390fd5b60006003600085815260200190815260200160002060003373ffffffffffffffffffffffffffffffffffffffff1673ffffffffffffffffffffffffffffffffffffffff1681526020019081526020016000208190555061041333828460010160009054906101000a900473ffffffffffffffffffffffffffffffffffffffff1673ffffffffffffffffffffffffffffffffffffffff16610e999092919063ffffffff16565b3373ffffffffffffffffffffffffffffffffffffffff16837f21e12a7cad0da5928167e1084ea4d5fdf8d9af66657a2543a9ac76a0ca0814778360405161045a91906112f2565b60405180910390a3505061046c610f18565b50565b610477610e53565b6000600260008381526020019081526020016000209050600073ffffffffffffffffffffffffffffffffffffffff168160000160009054906101000a900473ffffffffffffffffffffffffffffffffffffffff1673ffffffffffffffffffffffffffffffffffffffff160361052357816040517f2c067cd700000000000000000000000000000000000000000000000000000000815260040161051a91906112f2565b60405180910390fd5b8060000160009054906101000a900473ffffffffffffffffffffffffffffffffffffffff1673ffffffffffffffffffffffffffffffffffffffff163373ffffffffffffffffffffffffffffffffffffffff16146105ac576040517f93687c0b00000000000000000000000000000000000000000000000000000000815260040160405180910390fd5b8060050160009054906101000a900460ff16156105f5576040517fd0d04f6000000000000000000000000000000000000000000000000000000000815260040160405180910390fd5b806002015481600401541015610637576040517f115bddd400000000000000000000000000000000000000000000000000000000815260040160405180910390fd5b60018160050160006101000a81548160ff0219169083151502179055506000816004015490506106d08260000160009054906101000a900473ffffffffffffffffffffffffffffffffffffffff16828460010160009054906101000a900473ffffffffffffffffffffffffffffffffffffffff1673ffffffffffffffffffffffffffffffffffffffff16610e999092919063ffffffff16565b8160000160009054906101000a900473ffffffffffffffffffffffffffffffffffffffff1673ffffffffffffffffffffffffffffffffffffffff16837f37e8063b72a944a76de602f32b82fd8c2a1c6f99564c727ffaf913c7762cd4208360405161073b91906112f2565b60405180910390a3505061074d610f18565b50565b610758611046565b6000600260008481526020019081526020016000206040518060c00160405290816000820160009054906101000a900473ffffffffffffffffffffffffffffffffffffffff1673ffffffffffffffffffffffffffffffffffffffff1673ffffffffffffffffffffffffffffffffffffffff1681526020016001820160009054906101000a900473ffffffffffffffffffffffffffffffffffffffff1673ffffffffffffffffffffffffffffffffffffffff1673ffffffffffffffffffffffffffffffffffffffff1681526020016002820154815260200160038201548152602001600482015481526020016005820160009054906101000a900460ff1615151515815250509050600073ffffffffffffffffffffffffffffffffffffffff16816000015173ffffffffffffffffffffffffffffffffffffffff16036108d457826040517f2c067cd70000000000000000000000000000000000000000000000000000000081526004016108cb91906112f2565b60405180910390fd5b80915050919050565b60006003600084815260200190815260200160002060008373ffffffffffffffffffffffffffffffffffffffff1673ffffffffffffffffffffffffffffffffffffffff16815260200190815260200160002054905092915050565b60015481565b610946610e53565b6000600260008481526020019081526020016000209050600073ffffffffffffffffffffffffffffffffffffffff168160000160009054906101000a900473ffffffffffffffffffffffffffffffffffffffff1673ffffffffffffffffffffffffffffffffffffffff16036109f257826040517f2c067cd70000000000000000000000000000000000000000000000000000000081526004016109e991906112f2565b60405180910390fd5b8060030154421115610a30576040517f553ae05400000000000000000000000000000000000000000000000000000000815260040160405180910390fd5b60008203610a6a576040517f9b60eb4d00000000000000000000000000000000000000000000000000000000815260040160405180910390fd5b610abb3330848460010160009054906101000a900473ffffffffffffffffffffffffffffffffffffffff1673ffffffffffffffffffffffffffffffffffffffff16610f22909392919063ffffffff16565b81816004016000828254610acf919061147f565b92505081905550816003600085815260200190815260200160002060003373ffffffffffffffffffffffffffffffffffffffff1673ffffffffffffffffffffffffffffffffffffffff1681526020019081526020016000206000828254610b36919061147f565b925050819055503373ffffffffffffffffffffffffffffffffffffffff16837fd2d33c5340520954ae03d46ba5f056dd7adb35260f86df538a709bed96d89afb848460040154604051610b8a9291906114b3565b60405180910390a350610b9b610f18565b5050565b6000808503610bda576040517f9b60eb4d00000000000000000000000000000000000000000000000000000000815260040160405180910390fd5b60008403610c14576040517f7616640100000000000000000000000000000000000000000000000000000000815260040160405180910390fd5b600160008154610c23906114dc565b919050819055905060008442610c39919061147f565b90506040518060c001604052803373ffffffffffffffffffffffffffffffffffffffff1681526020017f000000000000000000000000000000000000000000000000000000000000000073ffffffffffffffffffffffffffffffffffffffff16815260200187815260200182815260200160008152602001600015158152506002600084815260200190815260200160002060008201518160000160006101000a81548173ffffffffffffffffffffffffffffffffffffffff021916908373ffffffffffffffffffffffffffffffffffffffff16021790555060208201518160010160006101000a81548173ffffffffffffffffffffffffffffffffffffffff021916908373ffffffffffffffffffffffffffffffffffffffff16021790555060408201518160020155606082015181600301556080820151816004015560a08201518160050160006101000a81548160ff0219169083151502179055509050507f000000000000000000000000000000000000000000000000000000000000000073ffffffffffffffffffffffffffffffffffffffff163373ffffffffffffffffffffffffffffffffffffffff16837ffaf2704a769b199a8e22b9fedacad276f94df822e78c773dd9afdf7fa8d24a9689858989604051610e1e9493929190611582565b60405180910390a450949350505050565b7f000000000000000000000000000000000000000000000000000000000000000081565b600260005403610e8f576040517f3ee5aeb500000000000000000000000000000000000000000000000000000000815260040160405180910390fd5b6002600081905550565b610f13838473ffffffffffffffffffffffffffffffffffffffff1663a9059cbb8585604051602401610ecc9291906115c2565b604051602081830303815290604052915060e01b6020820180517bffffffffffffffffffffffffffffffffffffffffffffffffffffffff8381831617835250505050610fa4565b505050565b6001600081905550565b610f9e848573ffffffffffffffffffffffffffffffffffffffff166323b872dd868686604051602401610f57939291906115eb565b604051602081830303815290604052915060e01b6020820180517bffffffffffffffffffffffffffffffffffffffffffffffffffffffff8381831617835250505050610fa4565b50505050565b600080602060008451602086016000885af180610fc7576040513d6000823e3d81fd5b3d925060005191505060008214610fe2576001811415610ffe565b60008473ffffffffffffffffffffffffffffffffffffffff163b145b1561104057836040517f5274afe70000000000000000000000000000000000000000000000000000000081526004016110379190611435565b60405180910390fd5b50505050565b6040518060c00160405280600073ffffffffffffffffffffffffffffffffffffffff168152602001600073ffffffffffffffffffffffffffffffffffffffff1681526020016000815260200160008152602001600081526020016000151581525090565b600080fd5b600080fd5b6000819050919050565b6110c7816110b4565b81146110d257600080fd5b50565b6000813590506110e4816110be565b92915050565b600060208284031215611100576110ff6110aa565b5b600061110e848285016110d5565b91505092915050565b600073ffffffffffffffffffffffffffffffffffffffff82169050919050565b600061114282611117565b9050919050565b61115281611137565b82525050565b6000819050919050565b600061117d61117861117384611117565b611158565b611117565b9050919050565b600061118f82611162565b9050919050565b60006111a182611184565b9050919050565b6111b181611196565b82525050565b6111c0816110b4565b82525050565b60008115159050919050565b6111db816111c6565b82525050565b60c0820160008201516111f76000850182611149565b50602082015161120a60208501826111a8565b50604082015161121d60408501826111b7565b50606082015161123060608501826111b7565b50608082015161124360808501826111b7565b5060a082015161125660a08501826111d2565b50505050565b600060c08201905061127160008301846111e1565b92915050565b61128081611137565b811461128b57600080fd5b50565b60008135905061129d81611277565b92915050565b600080604083850312156112ba576112b96110aa565b5b60006112c8858286016110d5565b92505060206112d98582860161128e565b9150509250929050565b6112ec816110b4565b82525050565b600060208201905061130760008301846112e3565b92915050565b60008060408385031215611324576113236110aa565b5b6000611332858286016110d5565b9250506020611343858286016110d5565b9150509250929050565b600080fd5b600080fd5b600080fd5b60008083601f8401126113725761137161134d565b5b8235905067ffffffffffffffff81111561138f5761138e611352565b5b6020830191508360018202830111156113ab576113aa611357565b5b9250929050565b600080600080606085870312156113cc576113cb6110aa565b5b60006113da878288016110d5565b94505060206113eb878288016110d5565b935050604085013567ffffffffffffffff81111561140c5761140b6110af565b5b6114188782880161135c565b925092505092959194509250565b61142f81611137565b82525050565b600060208201905061144a6000830184611426565b92915050565b7f4e487b7100000000000000000000000000000000000000000000000000000000600052601160045260246000fd5b600061148a826110b4565b9150611495836110b4565b92508282019050808211156114ad576114ac611450565b5b92915050565b60006040820190506114c860008301856112e3565b6114d560208301846112e3565b9392505050565b60006114e7826110b4565b91507fffffffffffffffffffffffffffffffffffffffffffffffffffffffffffffffff820361151957611518611450565b5b600182019050919050565b600082825260208201905092915050565b82818337600083830152505050565b6000601f19601f8301169050919050565b60006115618385611524565b935061156e838584611535565b61157783611544565b840190509392505050565b600060608201905061159760008301876112e3565b6115a460208301866112e3565b81810360408301526115b7818486611555565b905095945050505050565b60006040820190506115d76000830185611426565b6115e460208301846112e3565b9392505050565b60006060820190506116006000830186611426565b61160d6020830185611426565b61161a60408301846112e3565b94935050505056fea26469706673582212201d69be6b35cdd13645d2290558a4cb4879013a8e024d43ce51831b86e06c989364736f6c63430008140033",
  "linkReferences": {},
  "deployedLinkReferences": {}
}